:1000000012C021C020C01FC01EC01DC01CC01BC00C
:100010001AC025C018C017C016C015C014C013C020
:1000200012C011C010C011241FBECFE5D4E0DEBF46
:10003000CDBF20E0A0E6B0E001C01D92A136B2071E
:10004000E1F71CD01FC0DCCF81E084BB15BA089556
:1000500083B7856083BF89B7816089BF0895809128
:100060006000823320F48F5F8093600008951092C7
:10007000600095B381E0892785BB0895E5DFE8DF5F
:080080007894FFCFF894FFCF44
:00000001FF
