:1000000012C021C020C01FC01EC01DC01CC01BC00C
:100010001AC019C018C017C016C015C015C013C02B
:1000200012C011C010C011241FBECFE5D4E0DEBF46
:10003000CDBF20E0A0E6B0E001C01D92A236B2071D
:10004000E1F70BD02AC0DCCF21D0909361008093E0
:10005000600086B1806186B9089505D0789486B134
:10006000806486B9FFCF86B1806886B986B1886022
:1000700086B986B1876086B986B1806286B987B154
:10008000806487B986B1806486B9089524B185B14A
:0E00900090E0982F8827822B0895F894FFCFD8
:00000001FF
