:1000000012C021C020C026C01EC01DC01CC01BC005
:100010001AC019C018C017C016C015C015C013C02B
:1000200012C011C010C011241FBECFE5D4E0DEBF46
:10003000CDBF20E0A0E6B0E001C01D92A236B2071D
:10004000E1F709D032C0DCCF29D0909361008093D2
:1000500060000895089512D005D0789486B1806428
:1000600086B9FFCF85B5886085BD85B5876085BDBC
:100070008DE683BD89B7806889BF089586B18068A1
:1000800086B986B1886086B986B1876086B987B13E
:10009000806487B986B1806486B9089524B185B13A
:0E00A00090E0982F8827822B0895F894FFCFC8
:00000001FF
