:1000000012C021C020C034C01EC01DC01CC01BC0F7
:100010001AC019C018C017C016C015C017C013C029
:1000200012C011C010C011241FBECFE5D4E0DEBF46
:10003000CDBF20E0A0E6B0E001C01D92A236B2071D
:10004000E1F73BD0C4C0DCCF80E00895CF93CFB7B9
:10005000F89481E005C0B4D0F7DF8093610080E0C0
:100060008111F9CFCFBF86B1806186B9CF91089554
:10007000CF93DF93DFB7F89481E019C080916000DF
:10008000813059F08091610033D0C82F47D08C2F38
:1000900053D081E08093600009C08091610030D02E
:1000A000C82F43D08C2F48D01092600080E081117F
:1000B000E5CFDFBFDF91CF9108956FD012D005D08B
:1000C000789486B1806486B9FFCF85B5886085BD98
:1000D00085B5876085BD8DE683BD89B7806889BF9A
:1000E000089586E087BB18BA8FE781BB12BA0895DE
:1000F0009DEC899F812D112486958695869508957E
:100100009DEC899F912D1124969596959695990F22
:10011000292F220F220F920F891B089588B3846024
:1001200088BB88B38D7F88BB089588B3826088BB05
:1001300088B38B7F88BB0895811103C088E082BBA0
:100140000895813019F48EE582BB0895823019F448
:1001500081E182BB0895833019F484E182BB089564
:10016000843019F486E482BB0895853019F484E262
:1001700082BB0895863019F480E282BB08958730EF
:1001800019F48EE182BB0895883011F412BA0895F3
:10019000893011F484E082BB089586B1806886B905
:1001A00086B1886086B986B1876086B986B180627B
:1001B00086B987B1806487B986B1806486B90895AD
:1001C00024B185B190E0982F8827822B0895F89468
:0201D000FFCF5F
:00000001FF
